:020000040800F2
:10000000480E00204D020008C1200008A51D000870
:10001000BD200008F9030008C12700080000000007
:10002000000000000000000000000000492100085E
:10003000150400080000000045210008A121000867
:1000400067020008670200086702000867020008EC
:100050006702000867020008670200081904000828
:1000600067020008670200086702000867020008CC
:1000700067020008670200086702000867020008BC
:1000800067020008670200086702000867020008AC
:10009000FD03000867020008670200086702000805
:1000A000670200086702000867020008670200088C
:1000B000670200086522000867020008670200085E
:1000C000670200086702000867020008670200086C
:1000D000670200089125000867020008670200080F
:1000E000670200086702000867020008670200084C
:1000F000670200086702000867020008670200083C
:10010000670200086702000867020008670200082B
:10011000670200086702000867020008670200081B
:10012000670200086702000867020008670200080B
:1001300067020008670200086702000867020008FB
:100140000904000867020008670200086702000847
:1001500067020008670200086702000867020008DB
:1001600067020008670200086702000867020008CB
:10017000670200086702000867020008000000002C
:1001800067020008670200086702000867020008AB
:10019000670200086702000867020008670200089B
:1001A00000000000000000006702000800F002F8F4
:1001B00000F03CF80AA090E8000C82448344AAF1C5
:1001C0000107DA4501D100F031F8AFF2090EBAE8C3
:1001D0000F0013F0010F18BFFB1A43F0010318477B
:1001E00088270000A8270000103A24BF78C878C1EB
:1001F000FAD8520724BF30C830C144BF04680C602D
:10020000704700000023002400250026103A28BF74
:1002100078C1FBD8520728BF30C148BF0B60704778
:100220001FB502F087FB1FBD10B510BD00F0A9F887
:100230001146FFF7F5FF02F0C5FA00F0C7F803B466
:10024000FFF7F2FF03BC00F0CFF800000948804739
:1002500009480047FEE7FEE7FEE7FEE7FEE7FEE7A8
:10026000FEE7FEE7FEE7FEE704480549054A064BC0
:100270007047000051220008AD0100084808002026
:10028000480E0020480A0020480A002053EA020CC9
:1002900000F069802DE9F04B4FF00006002B1FBFE6
:1002A000B3FA83F503FA05F424FA05F65E4012BFAB
:1002B0001643B2FA82F502FA05F4C5F120051EBF15
:1002C00022FA05FC44EA0C04203556EA044C4FEAB5
:1002D000144418BF641C4FF000084FF0000990420E
:1002E00071EB030C39D3002919BFB1FA81F701FA78
:1002F00007F6B0FA80F700FA07F6C7F120071EBF2D
:1003000020FA07FC46EA0C062037B6FBF4FCA7EB04
:100310000507103F07F01F0BCBF120062CFA06F65D
:100320000CFA0BFB44BFB3460026202FA4BF5E4649
:100330004FF0000B5BEA060C08BF4FF0010B19EB06
:100340000B0948EB0608ABFB027C06FB02CC0BFB5F
:1003500003CCC01B71EB0C01C1E70B4602464146C2
:100360004846BDE8F08B13B5084318BF4FF0FF3087
:100370000146AFF30080BDE81C40704770477047EE
:100380007047754600F02CF8AE46050069465346A6
:1003900020F00700854618B020B5FFF765FFBDE8DF
:1003A00020404FF000064FF000074FF000084FF0DC
:1003B000000BAC46ACE8C009ACE8C009ACE8C00929
:1003C000ACE8C00921F007018D46704710B504461E
:1003D000AFF300802046BDE81040FFF730BF0000BB
:1003E000004870471000002001491820ABBEFEE70E
:1003F0002600020070470000FEE7000040F268603F
:10040000C2F2000000F0F8B840F29060C2F20000C2
:1004100000F0F2B870470000022000F017BC0000A6
:1004200072B600BFFEE7000010B590F820E0D0F8EB
:1004300000C0AEF1010EBEF1010FDCF808E00ED8ED
:100440001EF0E05F14D0CEF3016E012000FA0EF032
:1004500018608B68ABB1486843EAC00313E000F151
:10046000240101204FF480220B681A430A6010BD5A
:1004700000F1240101204FF400120B681A430A60B6
:1004800010BD08684305D1E9030403430CEB0E10CB
:10049000C0F88031C0F88441097D012905D100F5FB
:1004A000C2710B6843F480730B605168C0F88C1103
:1004B000126800F5C071C0F88821002001220B6885
:1004C0001A430A6010BD00007047000010B590F894
:1004D0002040013C012C78D8D0F800C000297DD004
:1004E000DCF81040A4077DD00CEB011CDCF8B04117
:1004F0000CF5D87E14F004049460DCF8B04119BF08
:10050000E4085460640D1460DEF800400CF5DA7EF7
:1005100004F00204D460DCF8B44124075ABFDEF8CA
:10052000004004F00F0408241461DEF800400029A4
:10053000C4F307249461DEF800404FEA1444546188
:10054000DCF8B8211A70026802EB0112D2F8B82167
:100550004FEA12225A70026802EB0112D2F8B82157
:100560004FEA12429A70026802EB0112D2F8B821E7
:100570004FEA1262DA70026802EB0112D2F8BC2173
:100580001A71026802EB0112D2F8BC214FEA122262
:100590005A71026802EB0112D2F8BC214FEA1242F2
:1005A0009A71026802EB0112D2F8BC214FEA126282
:1005B000DA71006814BF00F1100100F10C01002095
:1005C00020220B681A430A6010BD00F124010120AB
:1005D0004FF480220B681A430A6010BDDCF80C400F
:1005E000A40781D100F1240101204FF400120B680F
:1005F0001A430A6010BD00002DE9F04F81B0044697
:1006000000684669D0F804908768D0F80CB0D0F83C
:1006100010A0D0F81880F10703D1002530071CD4B2
:1006200023E0F90710D00121BA07816009D47807C7
:1006300000F1AA80380700F1B080204600F0F6FAF9
:1006400002E0204600F0F4FA0025F80500F184806D
:10065000F80300F1AA80300707D51BF0100004D082
:10066000206845F400751021C160700708D51BF0A3
:10067000080005D020680821C160204600F002FA79
:10068000B00706D52068C068800702D0204600F079
:10069000FBF9700607D51AF0100004D0206845F465
:1006A000806510210161B00608D51AF0080005D058
:1006B000206808210161204600F0B2FAF00606D554
:1006C00020680069800702D0204600F0ABFAB00332
:1006D00008D519F0100005D020681021416020468F
:1006E00000F0A2FAF00308D519F0080005D0206840
:1006F00008214160204600F0A5FA300440F18F80C7
:100700005FEA497040F1888006F4807008EA1020A2
:1007100028435FEA8871014648BF41F00201B205F3
:1007200058BF01465FEA48700D4648BF45F00405D2
:10073000700558BF0D4630056ED518F070006BD0AF
:1007400010380009052862D8DFE800F00353565935
:100750005C5F45F008055AE020684FF48071BA05E7
:1007600081600AD4780512D4380519D4204600F0E7
:1007700061FAF8037FF56FAF17E0204600F05CFAEE
:10078000F8037FF568AF10E04FF400655DE705F50D
:100790000055F8037FF55FAF07E04FF4805554E74D
:1007A00005F58045F8037FF556AF20684FF480319A
:1007B000BA0381600AD478030FD4380313D42046D7
:1007C00000F03CFA30073FF548AF4EE7204600F016
:1007D00037FA30073FF541AF47E705F500453007E9
:1007E0003FF53BAF41E705F5803530073FF535AFC5
:1007F0003BE745F010050AE045F0200507E045F02D
:10080000400504E045F0800501E045F4807520686E
:10081000816921F0700181612068042141604DB13E
:10082000606A40EA05012046616201B0BDE8F04F10
:10083000FFF74ABE01B0BDE8F08F0000B0B5C8B107
:10084000044690F8200010B9204600F077F82068A0
:10085000016841F00101016000F0E2FA054600BFC5
:1008600020684168C90707D100F0DAFA401B0B285D
:10087000F6D312E00120B0BD016821F00201016051
:1008800000F0CEFA054600BF2068416889070DD503
:1008900000F0C6FA401B0B28F6D3606A052140F42D
:1008A00000306062012084F82010B0BD217E026813
:1008B000012922F0800308BF42F080030360617EBB
:1008C0000268012922F0400308BF42F040030360A0
:1008D000A17E0268012922F0200308BF42F0200314
:1008E0000360E17E0268012942F0100308BF22F094
:1008F00010030360217F0268012922F0080308BF6A
:1009000042F008030360617F0268012922F00403BA
:1009100008BF42F004030360D4E901C2D4E90335FF
:1009200061691A432A431143ACF101021143C161C9
:1009300000200121606284F82010B0BDF0B587B0BE
:100940000021CDE90511CDE90311006846F600024A
:10095000C4F20002904202914BD046F20041C4F230
:100960000001884240F08C8040F26061C2F20001D8
:100970000A6843F63000C4F20200531C0B6052B9FF
:1009800000210191016941F000710161016901F0EB
:10099000007101910199002101910268002442F047
:1009A000080202600268012502F008020192019A21
:1009B00001910168022641F0010101600068C4F262
:1009C000020400F001000190019809200295CDE990
:1009D00003650327069004F5406002A9059700F01F
:1009E00041F94FF48050CDE90206CDE904571425B2
:1009F00038E043F63000C4F202000191016941F091
:100A000080610161016901F080610191019940F209
:100A10006061C2F200010A68531C0B6052B90021E8
:100A20000191016941F000710161016901F00071FA
:100A300001910199002101910268402542F00202D2
:100A40000260006800F002000190019860200290AE
:100A50000220CDE90301032005900020C4F202002A
:100A600000F580640920069002A9204600F0FAF8FB
:100A700028460021002200F09DFB284600F08AFB5A
:100A800007B0F0BD7047000070B58EB0054640F26B
:100A90006860C2F2000040F2CE048542C2F2000457
:100AA0003AD004F108036A4628460021FFF70EFDFC
:100AB0000098A0F2012003282CD82589A1892D04B3
:100AC00094F80EC063892DBA4FF4B474654300EEF8
:100AD000105A9FED421A09BAB8EEC00A4FEA114EF9
:100AE00020EE010A3EA442A245A149A61BBABDEED2
:100AF000C00A54F8204052F8202051F8201056F82F
:100B000020001B0C10EE105A25801380A1F800E085
:100B100080F800C00EB070BD40F26860C2F2000004
:100B200007AA00212346FFF7D1FC20884FF4B472B6
:100B3000000400BA5043079900EE100A9FED271AEF
:100B4000B8EEC00A20EE010AA1F201200328BDEE92
:100B5000C00AA6D86188A38809BA4FEA114E94F852
:100B600006C01BBA10EE102A1B0CDFE800F0020FC3
:100B70001C2940F2E000C2F20000A0F8A220A0F878
:100B8000A4E0A0F8A63080F8A8C08AE740F2E00010
:100B9000C2F20000A0F85221A0F854E1A0F85631AA
:100BA00080F858C17DE740F2E000C2F20000A0F8F2
:100BB0000222A0F804E2A0F8063280F808C270E72A
:100BC00040F2E000C2F20000A0F8B222A0F8B4E2C5
:100BD000A0F8B63280F8B8C263E700BF0000003961
:100BE00042040020F2040020A2050020520600204A
:100BF00044040020F4040020A40500205406002032
:100C000046040020F6040020A60500205606002019
:100C100048040020F8040020A80500205806002001
:100C200070470000704700007047000070470000E8
:100C300070470000704700007047000070470000D8
:100C400070470000704700007047000043F61441F1
:100C5000C4F201010A68024214BF08607047FFF73E
:100C6000F3BF00002DE9F04F82B000F13E4242F2A6
:100C7000004502F1FF77C4F202050A224FEAB726C7
:100C8000A84208BF0922092E38BF4FEAB7224FF009
:100C9000010A002400274FF00008009208E000BF7E
:100CA000023708F10108202F04F1040400F0B48099
:100CB0000E680AFA08F916EA090FF1D0D1F804A073
:100CC0000AF0030BABF10106012E17D80322866848
:100CD00002FA07FECA6826EA0E06BA40324382606C
:100CE0004268CAF3001522EA090205FA08F54FEA3C
:100CF000480C6FEA0E062A4342600BE00322BA401A
:100D0000D643BBF1030FBC4604D1BC464FF0030BE6
:100D100022E000BFC2688D68324005FA0CF52A4314
:100D2000BBF1020FC26017D16FF0030202EA580252
:100D3000024404F01C030F25D2F820E005FA03FA60
:100D40000D692EEA0A0E05FA03F343EA0E03136255
:100D5000D1F804A00AF0030B02680BFA0CF332403E
:100D60001A431AF4403F4FF0010A026098D0002263
:100D700043F644030192C4F202031A6843F6004E9C
:100D800042F480421A601A68C4F2010E02F48042F2
:100D90000192019A28F003024FF6084C7244CFF6F4
:100DA000FF7C52F80C3004F00C060F25B540AB4325
:100DB000009D05FA06F6334342F80C30DEF80820B1
:100DC0004B6842EA090643F60C4CDD0258BF22EAA2
:100DD0000906CEF80860C4F2010CDCF800209D0280
:100DE00042EA090658BF22EA0906CCF80060DEF89C
:100DF00004209D0342EA090658BF22EA0906CEF8FC
:100E00000460DEF80020DB0342EA090658BF22EA4C
:100E10000906CEF8006043E702B0BDE8F08F00009D
:100E200040F64400C2F200000068704790F83D2090
:100E3000202A1CBF02207047242280F83D2002682F
:100E4000136823F001031360536A23F01003536205
:100E5000536A19435162116841F001011160202168
:100E600080F83D100020704790F83D20202A1CBFDC
:100E700002207047242280F83D20026889B213685E
:100E800023F001031360D2F824C04FF6F07303EA95
:100E90000C0319435162116841F0010111602021D6
:100EA00080F83D1000207047B0B5B0B3044690F80C
:100EB0003D0028B9002084F83C00204600F0C6F828
:100EC000242084F83D002068016821F001010160C0
:100ED000016841F400410160016821F400410160B2
:100EE00000F05CFA48F28041C0F21E0140F60012A8
:100EF00088424FF00001C0F23D02656838BF012111
:100F0000904248F2A1624FF00003C0F2010238BFE4
:100F10000123954238BF0B460BB10120B0BD4DF601
:100F20008361C4F21B31A0FB011221684FEA924C8D
:100F30004B6823F03F0343EA92424A600A6A48F250
:100F4000A063C0F201039D4222F03F0313D80CF1CD
:100F5000010201386D001A43B0FBF5F00A62CA695C
:100F600001304CF6FF736FF31F3022EA030C0428A4
:100F700098BF04203FE04FF496720CFB02FC44F64D
:100F8000D352C1F26202ACFB022C012202EB9C1292
:100F90001A430A62CA69A3684CF6FF7C22EA0C0C69
:100FA000A0F1010E9BB119206843BEFBF0F00422B2
:100FB000013062F31F30000512D09BB11920684345
:100FC000BEFBF0F00422013062F31F3011E005EBAC
:100FD0004500BEFBF0F001306FF31F300005ECD18F
:100FE000012008E005EB4500BEFBF0F001306FF397
:100FF0001F3040F4004040EA0C00C8610868D4E9A2
:10100000072320F0C000104318430860886848F2A6
:10101000FF3204F10C0C90439CE82C101843104351
:101020008860C86820F0FF00284340EA0C00C860D0
:10103000086840F00100086000202021206484F846
:101040003D10206384F83E00B0BD0000B0B586B00E
:1010500000240594CDE9034445F200410068C4F240
:10106000000188420294019401D006B0B0BD43F65D
:1010700030050094C4F20205286840F002002860A0
:10108000286800F00200009000984FF44070019032
:101090001220CDE90204032004900420059001F5FC
:1010A000D83001A9FFF7DEFD0094286940F4001054
:1010B0002861286900F400100090009806B0B0BDC7
:1010C00040F2000040F64401C2F20000C2F200010A
:1010D00000780A68104408607047000080B543F645
:1010E0000040C4F20200016841F40071016001682F
:1010F00041F480610160016841F480710160032066
:1011000000F084F80F2000F005F800F027F8002028
:1011100080BD000070B540F20006C2F2000640F249
:1011200008013278C2F200014FF47A730968B3FB08
:10113000F2F20446B1FBF2F1084600F04DFB0F2C31
:101140004FF0010508D838B94FF0FF302146002292
:10115000002500F02FF87460284670BD82B0002092
:1011600043F640010190C4F202014A6842F4804211
:101170004A604A6802F480420192019A009008682D
:1011800040F080500860086800F08050009000989F
:1011900002B07047002848BF704700F01F010122CD
:1011A00002FA01F14EF200124009CEF2000242F8BA
:1011B0002010704710B54EF60C5CCEF2000CDCF837
:1011C0000030C3F3022E8EF00704042C28BF042441
:1011D000BEF103034FF0FF3E0EFA04F438BF0023C4
:1011E000A14399400EFA03F39A4300F00F03043B26
:1011F0001143634409010C3300F16042B0F1FF3F39
:10120000C8BF02F56443197010BD00004EF60C51C2
:10121000CEF200010A684FF6FF031A4060F30A227B
:1012200042F0806040F0FD70086070477047000039
:101230002DE9F041002800F08B8043F60808C4F245
:1012400002080446D8F8F8030D4600F00F00884263
:1012500007D288F8F853D8F8F80300F00F00A84236
:1012600076D12068810717D5410705D5D8F8001039
:1012700041F4E051C8F80010010705D5D8F8001076
:1012800041F46041C8F80010D8F80010A26821F0BD
:10129000F0011143C8F80010C0073FD1D8F8F80397
:1012A00000F00F00A84207D988F8F853D8F8F803DF
:1012B00000F00F00A8424BD12068410707D5D8F8AD
:1012C0000010E26821F4E0511143C8F80010000753
:1012D00008D5D8F80000216920F4604040EAC10038
:1012E000C8F8000000F082F8D8F8001042F64E125C
:1012F000C1F30311C0F60002515C40F2080220FA6B
:1013000001F140F20400C2F200000068C2F20002E3
:101310001160FFF7FFFE0020BDE8F0816068811ECC
:10132000022907D258F8081C89015CBF0120BDE8DA
:10133000F08110E0012807D158F8081C89035CBF30
:101340000120BDE8F08106E058F8081C890702D4A6
:101350000120BDE8F081D8F8001021F00301084316
:10136000C8F80000FFF75CFD064641F2883700BF71
:10137000D8F80000616800F00C00B0EB810F8DD050
:10138000FFF74EFD801BB842F2D90320BDE8F08183
:101390004C20C4F2472001210160704740F2080050
:1013A00043F60801C2F20000C4F2020100680968B5
:1013B00042F65E12C1F38221C0F60002515CC840C1
:1013C0007047000040F2080043F60801C2F2000036
:1013D000C4F202010068096842F65E12C1F34231AC
:1013E000C0F60002515CC8407047000010B543F6DB
:1013F0000404C4F20204606800F00C0008280AD05B
:10140000042819BF42F20040C0F2F40041F6003057
:10141000C0F2B70010BD206821682368490241F678
:101420000031C0F2B70100F03F02C3F388105CBF87
:1014300042F20041C0F2F401A1FB00010023FEF7DB
:1014400025FF21680222C1F3014102EB4101B0FBFB
:10145000F1F010BD10B543F60C04C4F2020420688C
:10146000000658BF10BDFFF7E1FE8020A07010BD40
:101470002DE9F04182B0002868D00446007843F698
:101480000006C007C4F202060BD0B06800F00C00E2
:10149000042840F0A0803068800302D560680028EE
:1014A00054D0207880071AD5B06810F00C0F09D0FE
:1014B000B06800F00C00082840F0B480706840026A
:1014C00000F1B0803068800702D5E06801283DD186
:1014D0003068216920F0F80040EAC10030602078CF
:1014E000000737D4207840074BD4A56955B3B068BE
:1014F00000F00C00082840F0DA80012D26D070683A
:10150000E16900F480028A4220D1216A00F03F02A2
:101510008A421BD147F6C071626A0140B1EB821F5B
:1015200014D1A16A4FF6FF73C903994300F4403206
:10153000A1F580318A4209D1E16A00F07060B0EB18
:10154000016F03D1002002B0BDE8F081012002B09C
:10155000BDE8F0816069002840F20000C4F2472035
:1015600000F091800121C0F8801EFFF759FC05466C
:10157000706F8007B6D4FFF753FC401B0228F7D9E1
:1015800091E0306C4FF00008C0000CD4CDF804801E
:10159000306C4FF0010840F080503064306C00F047
:1015A00080500190019847F20007C4F200073868A4
:1015B000C0054DD4386840F480703860FFF730FCC7
:1015C000054600BF3868C00542D4FFF729FC401B20
:1015D0000228F7D967E0B06800F00C00082803D1B2
:1015E000706840023FF557AF6568B5F5803F07D09A
:1015F0003068B5F5A02F40F0B38040F48020306013
:10160000306840F480303060FFF70AFC054600BFC8
:10161000306880033FF545AFFFF702FC401B6428AC
:10162000F6D940E0E068002864D00020C4F24720EA
:1016300001210160FFF7F4FB054600BF3068800719
:101640003FF546AFFFF7ECFB401B0228F6D92AE036
:10165000A568012D05D0306F052D5FD140F0040045
:101660003067306F40F001003067FFF7D9FB054667
:1016700041F28837306F800769D4FFF7D1FB401BF8
:10168000B842F7D90FE00021C0F8801EFFF7C8FB71
:10169000054600BF706F80077FF524AFFFF7C0FBE2
:1016A000401B0228F6D9032002B0BDE8F0810027D4
:1016B000C4F2472700203866FFF7B2FB022D05462B
:1016C0000CD100BF3068800164D5FFF7A9FB401B37
:1016D00002284FF00300F5D935E700BF30688001DC
:1016E0007FF530AFFFF79CFB401B02284FF0030053
:1016F000F4D928E70020C4F2472000210160FFF759
:101700008FFB0546306880077FF5E9AEFFF788FB61
:10171000401B02284FF00300F4D914E720F0010029
:101720003067306F20F004003067FFF779FB002D41
:1017300005469DD141F28837306F800707D5FFF706
:101740006FFB401BB8424FF00300F5D9FBE6B8F140
:10175000000F3FF4CAAE306C20F080503064C4E615
:1017600020F480303060306820F480203060FFF753
:1017700057FB002D05467FF44BAF07E0FFF750FB0A
:10178000401B64284FF003003FF6DDAE3068800355
:10179000F4D486E604F11C052FCD084340EA8210FC
:1017A000D9034FF6FF729143A1F5803140EA0560FD
:1017B0000843706001203866FFF732FB044600BF23
:1017C000306880013FF5BEAEFFF72AFB001B022800
:1017D0004FF00300F4D9B6E6411E0020B0EB116FC4
:1017E0001CBF012070474EF21002CEF20002516081
:1017F0004EF62351CEF20001F0230B7007219060CA
:1018000011607047704700007047000010B590F8F5
:101810003C20012A4FF0020252D0012380F83C30D4
:1018200080F83D200268D2F804E0D2F808C00C68C5
:101830002EF07003234341F2FF74C4F20004A2426D
:1018400053600DDC40F2FF73C4F200039A4215DCD2
:10185000B2F1804F29D040F20043C4F2000322E0ED
:1018600040F2FF33C4F201039A4212DC41F6000356
:10187000C4F200039A4218D0002312E040F600039D
:10188000C4F200039A4210D040F60043C4F20003B1
:1018900009E044F20003C4F201039A4205D040F289
:1018A0000043C4F201039A4204D149682CF080033A
:1018B000194391600121002280F83D1080F83C20FE
:1018C000104610BD002804BF0120704710B5044623
:1018D00090F83D0028B9002084F83C00204600F034
:1018E0001FF8022084F83D002068211D00F0D2FC82
:1018F000012084F8460084F83E0084F83F0084F814
:10190000400084F8410084F8420084F8430084F8E1
:10191000440084F8450084F83D00002010BD00001C
:1019200080B586B000220592CDE9032240F2004145
:101930000068C4F2000188420292019201D006B010
:1019400080BD43F630000092C4F20200036943F008
:1019500002030361036903F002030093009B0092FA
:10196000036843F001030360006800F00100009089
:101970000098C02001900220CDE90202CDE90420A8
:1019800001F5FE3001A9FFF76DF91D2000210022AD
:10199000FFF710FC1D20FFF7FDFB06B080BD000027
:1019A00090F83D1001291CBF01207047022180F8EA
:1019B0003D10006841F2FF71C4F2000188420DDC65
:1019C00040F2FF71C4F20001884215DCB0F1804F93
:1019D00029D040F20041C4F2000122E040F2FF3180
:1019E000C4F20101884212DC41F60001C4F2000198
:1019F000884218D0002112E040F60001C4F2000134
:101A0000884210D040F60041C4F2000109E044F2DF
:101A10000001C4F20101884205D040F20041C4F245
:101A20000101884206D1816801F00701062904BF3F
:101A300000207047016841F00101016000207047FB
:101A400070470000B0B504460068C168026902EA48
:101A50000105A90720D4680738D4280752D4E8061E
:101A60006BD4E80740F08780280600F18E80680676
:101A700006D520686FF040010161204600F026F98C
:101A8000A80658BFB0BD21686FF0200220460A6149
:101A9000BDE8B040FFF7B8BE6FF00201016101215F
:101AA00021778069800707D02046FFF7C9FF002013
:101AB00020776807D1D509E0204600F071F820466C
:101AC00000F070F8002020776807C6D520686FF016
:101AD0000401016102212177806910F4407F07D061
:101AE0002046FFF7ADFF002020772807B7D509E093
:101AF000204600F055F8204600F054F800202077EA
:101B00002807ACD520686FF0080101610421217716
:101B1000C069800707D02046FFF792FF002020779A
:101B2000E8069ED509E0204600F03AF8204600F08D
:101B300039F800202077E80693D520686FF010016F
:101B4000016108212177C06910F4407F08D0204648
:101B5000FFF776FF00202077E8073FF485AF0AE023
:101B6000204600F01DF8204600F01CF800202077E9
:101B7000E8073FF479AF20686FF00101016120466A
:101B800000F012F828067FF572AF20686FF0800130
:101B900001612046FFF736FE68067FF571AF68E702
:101BA000704700007047000070B582B0006840F2D6
:101BB0000041C4F20001884201D002B070BD40F281
:101BC000E004C2F20004D4ED000A94ED010A2046BC
:101BD00000F01AFE94ED0B0A40F26865BDEEC00AF3
:101BE00010EE100AC2F200050DF10606ADF806006F
:101BF0002846314600F0AAFAD4ED2C0A94ED2D0ABD
:101C000004F1B00000F000FE94ED370A3146BDEE5D
:101C1000C00A10EE100AADF80600284600F096FA49
:101C2000D4ED580A94ED590A04F5B07000F0ECFDBB
:101C300094ED630A3146BDEEC00A10EE100AADF80D
:101C40000600284600F082FAD4ED840A94ED850A55
:101C500004F5047000F0D8FD94ED8F0A3146BDEE16
:101C6000C00A10EE100AADF80600284600F06EFA21
:101C700002B070BDB0B5044690F83C0001284FF0AA
:101C8000020008BFB0BD012584F83C5084F83D0037
:101C9000206800F09FFB00284FF0010005D00021D4
:101CA00084F83D5084F83C10B0BD2068C16821F034
:101CB0004001C160C16821F48041C1600020002161
:101CC00084F83D5084F83C10B0BD0000704700001F
:101CD000002804BF0120704710B5044690F8410069
:101CE00028B9002084F84000204600F021F8242084
:101CF00084F841002068C16821F40051C160204689
:101D000000F0D4FB2068016921F490410161416930
:101D100021F02A014161C16841F40051C1600020F5
:101D20002021606484F8411084F84210606310BD83
:101D300080B586B000220592CDE9032241F2000170
:101D40000068C4F2010188420292019201D006B0FB
:101D500080BD43F630000092C4F20200436943F0B4
:101D600010034361436903F010030093009B00924A
:101D7000036843F001030360006800F00100009075
:101D800000984FF4C06001900220CDE902020320C8
:101D900004900720059001F5704001A9FEF762FF4D
:101DA00006B080BDFEE7000080B540F2686046F2F4
:101DB0000041C2F20000C4F2000100234FF4802C65
:101DC000062280E80E00C0E9033CC0E905338383A6
:101DD000FEF734FD002808BF80BDBDE88040FEF757
:101DE0001FBB000080B540F2906046F60001C2F2D1
:101DF0000000C4F2000100234FF4802C062280E88A
:101E00000E00C0E9033CC0E905338383FEF716FDED
:101E1000002808BF80BDBDE88040FEF701BB000080
:101E200080B586B0002043F63001CDE90400009073
:101E3000C4F202010A6842F002020A600A6802F073
:101E400002020092009A00900A6842F001020A60C1
:101E50000A6802F001020092009A00900A6842F0BB
:101E600008020A600A6802F008020092009A0090D4
:101E7000086840F080000860086801A900F0800050
:101E800000900098022001904FF40410029001206D
:101E9000039040F20040C4F20200FEF7E3FE072088
:101EA00000210022FFF786F90720FFF773F906B03B
:101EB00080BD000080B540F2187045F20041C2F2CA
:101EC0000000C4F2000141F6802200234FF4804C50
:101ED000C0F2060280E80E00C0E9033CC0E9053309
:101EE000C0E90733FEF7E0FF002818BFFEF798FAB5
:101EF00040F21870C2F200000021FEF797FF0028A0
:101F000018BFFEF78DFA40F21870C2F200000021EF
:101F1000FEF7AAFF002808BF80BDBDE88040FEF79D
:101F20007FBA000010B588B040F26C7040F20041FA
:101F30000024C2F20000C4F200014FF6FF720794C1
:101F4000CDE90544CDE90344CDE90044C0E90014DE
:101F5000C0E9024204618461FFF7B4FC002818BFA5
:101F6000FEF75EFA40F26C70C2F2000003A9CDE900
:101F70000344FFF77FFE002818BFFEF751FA002048
:101F8000CDE9000040F26C70C2F200006946FFF734
:101F90003DFC002818BFFEF743FA08B010BD000052
:101FA00080B540F2FC7041F20001C2F20000C4F2C0
:101FB000010100234FF00C0C4FF4E13280E80E00D9
:101FC000C0E90333C0E905C3C361FFF781FE002800
:101FD00008BF80BDBDE88040FEF722BA9FED342ADD
:101FE00030EE603A21EE021A9FED322A30EE200ADE
:101FF00033EE414A30EE015A84EE024A85EE025A2F
:1020000033EE013A30EE410A83EE023A80EE020AE4
:10201000B7EE007A40F2E000C2F20000B0EEC41A5F
:10202000B0EEC52AB4EE421AF1EE10FAC8BFB0EE17
:10203000412AB0EEC31AB0EEC06AB4EE461AF1EE11
:1020400010FAC8BFB0EE416A9FED1B1AB4EE462AE3
:10205000F1EE10FAC8BFB0EE426AB4EE416A81EE0A
:10206000062AF1EE10FAC8BFB0EE427A24EE071A43
:10207000BDEEC11A25EE072A23EE073A20EE070A25
:10208000BDEEC22ABDEEC33ABDEEC00AB8EEC11A1B
:1020900080ED001AB8EEC21A80ED2C1AB8EEC31A01
:1020A00080ED581AB8EEC00A80ED840A704700BF70
:1020B000D7A3503F2DB29D3D00007A44FEE70000BB
:1020C000FFF7C8F9FEE7000010B582B0002243F622
:1020D00040030192C4F202031C6844F002041C6035
:1020E0001B6840F2B47403F002030193019B40F2B9
:1020F0000043C2F20004C4F20003C4E90031C4E9A1
:10210000022020462261A261FFF7DCFB002818BFF5
:10211000FEF786F920680022C16841F00101C16024
:102120001D200221FFF746F81D20FFF733F8204657
:10213000FFF736FC20B102B0BDE81040FEF770B9E1
:1021400002B010BD704700007047000080B588B035
:1021500040F2FF1002900020CDE904000A88082018
:10216000069010BA4A88000CADF8000010BA8A88B0
:10217000000CADF8020010BAC988000CADF80400DC
:1021800008BA000CADF8060040F26860C2F2000028
:1021900002A96A460123FEF747F908B080BD000096
:1021A000FEF78EBFB0B592B0002443F64000CDE9F3
:1021B0000A44CDE908440594CDE90344CDE901443E
:1021C0000094C4F202000168022541F080510160D0
:1021D000006800F080500090009847F200000094E2
:1021E000C4F20000016841F440410160006800F45D
:1021F000404000900098012006904FF480300790F6
:102200004FF480000D9006200E90A8200C95CDE98B
:102210000F050420119006A8FFF72AF908B172B63D
:10222000FEE70F20CDE901054FF4A05004904FF4D4
:102230008050059001A805210394FEF7F9FF10B125
:1022400072B600BFFEE7FFF7A3F812B0B0BD000002
:102250004EF68850CEF20000016841F47001016032
:102260007047000040F26C70C2F200000068016923
:10227000C90708BF70476FF00101016140F2646156
:1022800040F26C70C2F200010122C2F200000A802A
:10229000FFF7D8BB10B540F6FF3E0368C4F2000E4E
:1022A00040F2004C7045C4F2010C26DCB0F1804FC6
:1022B00030D040F20042C4F2000290422AD040F6F0
:1022C0000002C4F20002904224D041F6FF72C4F230
:1022D0000002904228DC70453ADCB0F1804F5CD0BF
:1022E00040F20042C4F20002904256D040F6000292
:1022F000C4F20002904250D053E040F60042C4F2D3
:102300000002904206D0604504D00022C4F20102CF
:102310009042DAD14A6823F07003134341F6FF720A
:10232000C4F200029042D6DD43F6FF72C4F201020D
:10233000904220DC42F20002C4F2000290422CD013
:102340000022C4F20102904227D0604525D028E047
:1023500040F60042C4F2000290421ED041F6000254
:10236000C4F20002904218D041F60042C4F20002CA
:10237000904212D015E044F20002C4F201029042F1
:102380000BD044F60002C4F20102904205D044F2A0
:102390000042C4F20102904203D1CA6823F44073A0
:1023A000134323F08002D1F800E04B698C681A4394
:1023B000C46240F48063C0F828E0634504BF096943
:1023C0000163016841F00401016001214161026083
:1023D00010BD000080B58268D1E900E322F0770CDF
:1023E00023F0070242EA0C0242EA0E0C4FEA3312D3
:1023F000072AC0F808C009D84FF0000CDFE802F047
:10240000040404040A1E3348604680BD4FF0010CEA
:10241000604680BDBEF1050F04BF012080BD026A89
:10242000036A23F0010303628369096923F0F0035F
:1024300043EA011181610262002080BDD1F808C029
:102440000969036A026A22F001020262826922F0CB
:10245000F00242EA011123F00A0242EA0C02816111
:102460000262002080BDD1F808C00969036A026ACF
:1024700022F010020262826922F4704242EA0131C3
:1024800023F0A00242EA0C1281610262002080BDAA
:10249000D1E902C30969826843EA0C0322F47F424E
:1024A00043EA012111438160002080BD10B504463C
:1024B0000068D4E902C22369016921F44051114343
:1024C0000161626943EA0C01E3691143C26819437F
:1024D00049F20C639A431143C1604169A26921F436
:1024E000407141F20043114340F48062C4F20103A1
:1024F0009A42416102D1FEF765FF01E0FEF74EFF0F
:10250000E16963681922B1F5004FA0FB02011FD1F8
:102510005A00DB0FFDF7BAFE48F21F51C5F2EB116E
:10252000A0FB01235A096FF0630302FB030032236F
:1025300003EBC000A0FB01014FF4F87000EA11109A
:1025400000EB0210C1F3421122680843906010BDF5
:102550009A009B0FFDF79AFE48F21F51C5F2EB114E
:10256000A0FB01235A096FF0630302FB030032232F
:1025700003EB0010A0FB0101F02000EA511000EB7A
:102580000210C1F3431122680843906010BD00009F
:102590002DE9F04182B040F2FC70C2F20000006808
:1025A0000168890600F1898041F20001C4F201014D
:1025B0000968C90640F100810021009101682423C7
:1025C000009140680090009840F2B860C2F20000AC
:1025D000006802680168120321F00101016041688E
:1025E0004360C1F1240172D4026889B242F400222E
:1025F00002600268122942F00102026040F0DC80B1
:1026000040F27000C2F20000817DC37DC27D90F86F
:1026100018E0047E457E867E90F81A8090F81BC0F4
:10262000C77E63F30A21C7F301138372C37ED20806
:102630009B09C372037F477FAD0043EA0723838171
:10264000837FC77F6EF34A1243EA0723C38190F862
:10265000203090F8217045EA941543EA072303825D
:1026600090F8223006F00107837490F82330A1F52A
:102670008061C37490F8243090F8256045EA87277C
:1026800043EA062383824FEA580590F8263090F8F3
:1026900027600180A2F580616CF3CA154180A7F51F
:1026A000806143EA06238180A5F58061C180A3F59E
:1026B0008061018102B0BDE8F081002101910168D3
:1026C000019140680190019802B0BDE8F08146F2A6
:1026D0002802C4F20202136889B223F400231360B3
:1026E0000268122942F00102026065D140F27000D6
:1026F000C2F2000090F83A1090F83B3090F83B702E
:1027000090F83C6090F83C8090F83D4090F83E2076
:1027100090F83EE090F83FC090F83F5063F30A21F4
:10272000C5F30113837290F83F30FD089B09C37213
:1027300090F8403090F8417066F34A1543EA072359
:10274000838190F8423090F84360A40043EA062366
:10275000C38190F8443090F8456044EA981443EA05
:102760000623038290F8463002F00102837490F849
:10277000473044EA8222C37490F8483090F84940C8
:10278000A1F5806143EA042383824FEA5E0790F853
:102790004A3090F84B600180A5F580616CF3CA1750
:1027A0004180A2F5806143EA06238180A7F580611C
:1027B000C180A3F58061018102B0BDE8F081000015
:1027C000FEE70000FEF78AFCFFF7ECFCFFF728FBB2
:1027D000FFF7EAFAFFF76EFBFFF7A4FBFFF7E0FB5A
:1027E000FFF700FB42F2CF000921FFF76DFCB0EECE
:1027F000000A9FED041AF0EE400AFFF7EFFB00BF5E
:10280000FEE700BF0000000090ED063A30EEC02A5F
:1028100090ED031A90ED094A416B80ED010A90EDAD
:10282000050A90ED076A22EE033A34EE034A32EECF
:10283000413A05EE101A22EE000A26EE033AC0EDE8
:10284000000A80ED022A80ED080A80ED094A80ED39
:102850000A3AB8EEC56A4A42B4EE464AF1EE10FAB8
:10286000B0EE445A07EE102AB4EE464AC8BFB0EEA6
:10287000465AF1EE10FAB8EEC76A04DCB4EE465AD6
:10288000F1EE10FA0ADAB4EE465AF1EE10FAB8BFD9
:10289000B0EE465AB0EE454A80ED095A016B30EE73
:1028A000040A05EE101A33EE000A80ED0B0AB8EEAA
:1028B000C54A4A42B4EE440AF1EE10FAB0EE403A8C
:1028C00005EE102AB4EE440AC8BFB0EE443AF1EE69
:1028D00010FAB8EEC54A04DCB4EE443AF1EE10FA50
:1028E0000ADAB4EE443AF1EE10FAB8BFB0EE443A68
:1028F000B0EE430A80ED0B3A80ED032A90ED0E2AEC
:10290000B0EEC03AB4EE423AF1EE10FAB0EE403A10
:10291000B5EE402A9FED064AB8BFB0EE443AF1EE5C
:1029200010FA18BFB0EE430A80ED041A704700BFDA
:1029300000000000F1EE100A4FF6FF71C0F2C03146
:1029400020EA010040F04070E1EE100A70470000FC
:10295000000000000000010203040607080900004F
:102960000000010203040000882900080000002084
:1029700010000000E801000898290008100000205D
:10298000380E0000040200080100000010000000E2
:082990000024F4000000000027
:04000005080001AD41
:00000001FF
